S00F00006E6F746D61696E2E737265631F
S3153000000020E0C04645000030550000305500003035
S315300000105500003055000030550000305500003096
S315300000205500003055000030550000305500003086
S315300000305500003055000030550000305500003076
S31530000040550000300449054808600548854600F0EB
S3153000005081F8FFE7FEE7C04608ED00E0000000301B
S3153000006000200030C046C046C046C046C046C046E6
S31530000070C046C046C046C046C046C046C046C0461A
S31530000080000000000000000000000000000000003A
S31530000090000000000000000000000000000000002A
S315300000A0000000000000000000000000000000001A
S315300000B0000000000000000000000000000000000A
S315300000C000000000000000000000000000000000FA
S315300000D000000000000000000000000000000000EA
S315300000E000000000000000000000000000000000DA
S315300000F000000000000000000000000000000000CA
S3153000010001607047006870477047C0460222064952
S315300001100B6813430B6005490B6893430B60044926
S315300001200B6813430B607047140001401000014008
S315300001300C0001400221024A13680B4313607047DA
S31530000140040001400221024A13688B431360704752
S3153000015004000140F0B5D6464F4646460521C0B5A7
S315300001603648FFF7CDFF1B213548FFF7C9FF702111
S315300001703448FFF7C5FF34493448FFF7C1FFFFF76E
S31530000180C5FF334B102798463248FFF7BBFF07426F
S31530000190FAD13148FFF7B6FF0F23814620259A461C
S315300001A04B46043DEB40524613401E003036092B79
S315300001B001D937331E0020242648FFF7A3FF044217
S315300001C0FAD131002448FFF79BFF002DE8D12024D7
S315300001D02048FFF797FF0442FAD120211E48FFF747
S315300001E08FFF20241B48FFF78DFF0442FAD10D21E3
S315300001F01948FFF785FF20241648FFF783FF04428E
S31530000200FAD10A211448FFF77BFF464657252024AA
S315300002101048FFF777FF0442FAD129000E4801361D
S31530000220FFF76EFF3578002DF2D102210B4B1A689D
S315300002300A431A601A688A431A60A5E724000950EF
S31530000240280009502C0009500103000030000950E5
S3153000025060020030180009500000095004000140C7
S3133000026057656C636F6D6520486F6D650A00DB
S70530000000CA
